S00E0000546573745F372E73726563E0
S11300000C942A000C946E000C945A010C94470032
S11300100C9447000C9447000C9447000C94470040
S11300200C9447000C9447000C9449000C9447002E
S11300300C9447000C9447000C9447000C94470020
S11300400C9447000C9447000C9447000C94470010
S11300500C94470011241FBECFE5D8E0DEBFCDBF0E
S113006010E0A0E6B0E0E0E9F0E102C005900D92F6
S1130070A437B107D9F720E0A4E7B0E001C01D928E
S1130080AB37B207E1F70E949D010C9446080C942B
S113009000001F920F920FB60F9211248F939F931B
S11300A0AF93BF938091600090916100A091620032
S11300B0B09163000196A11DB11D809360009093DF
S11300C06100A0936200B0936300BF91AF919F91D0
S11300D08F910F900FBE0F901F9018951F920F9243
S11300E00FB60F9211248F939F93AF93BF93809178
S11300F0770090917800A0917900B0917A000196F0
S1130100A11DB11D8093770090937800A09379008E
S1130110B0937A00BF91AF919F918F910F900FBED2
S11301200F901F9018959FEF97BB9AB3906C9ABB52
S11301309BB39F779BBB88BB8BB380648BBB00C096
S113014000C000008BB38F7B8BBB87EA91E60197DD
S1130150F1F700C0000008958FEF87BB8AB3806C6D
S11301608ABB87EA91E60197F1F700C0000080E3BB
S11301700E94930080E30E94930080E30E94930016
S113018088E30E9493008EE00E94930086E00E9420
S1130190930081E00E94930008959FEF97BB9AB368
S11301A0906C9ABB9BB390689BBB88BB8BB38064F9
S11301B08BBB00C000C000008BB38F7B8BBB89EF6F
S11301C090E00197F1F700C00000089583B78860BC
S11301D083BF8CE78CBF89B7826089BF83B7856092
S11301E083BF7894089581EA8FBD8AE08EBD81B380
S11301F0806381BB089585B78A6085BF8BB7806CA7
S11302008BBF78940895EF92FF920F931F93CF932F
S1130210DF9300D000D01F92CDB7DEB77C014AE057
S1130220BE016F5F7F4F0E94110880EC0E94930013
S11302308EE40E94CD008FE60E94CD0082E50E94EC
S1130240CD008AE30E94CD00C70168EE73E00E94EE
S1130250E907CB010AE010E0B8010E94E907805DDC
S11302600E94CD00C70164E670E00E94E907CB015B
S1130270B8010E94E907805D0E94CD00C701B80162
S11302800E94E907F82ECB01B8010E94E907805DBE
S11302900E94CD0080E38F0D0E94CD000F900F903F
S11302A00F900F900F90DF91CF911F910F91FF90BE
S11302B0EF9008951F920F920FB60F9211242F936F
S11302C03F934F935F936F937F938F939F93AF93DA
S11302D0BF93EF93FF9380917400813051F4809128
S11302E07500909176000196909376008093750046
S11302F00DC080917400823049F480917500909112
S11303007600019790937600809375008091750034
S1130310909176000E940301FF91EF91BF91AF91FC
S11303209F918F917F916F915F914F913F912F9109
S11303300F900FBE0F901F901895CF93DF93CDB7FA
S1130340DEB76B970FB6F894DEBF0FBECDBF0E9429
S1130350AC000E94E6000E94FB000E94F30085E0CE
S1130360E4E6F0E0DE01119601900D928A95E1F742
S113037085E0E9E6F0E0DE01169601900D928A959B
S1130380E1F785E0EEE6F0E0DE011B9601900D92C8
S11303908A95E1F781B38B7F81BB81B3877F81BB72
S11303A081B3806381BB8FE085BBA12CB12C212C50
S11303B0312C2101C12CD12C7601188E198E1A8E64
S11303C01B8E1C8A1D8A1E8A1F8A989B09C0999BB2
S11303D00AC09A9B0BC09B9B0CC08FEF9FEF0BC076
S11303E080E090E008C081E090E005C082E090E009
S11303F002C083E090E08F3F2FEF920709F47CC3A3
S11304009C01220F331F880F991F880F991F880F93
S1130410991F4901880E991E80917500909176006C
S1130420A401481B590BCA01181619060CF0B1C1D6
S113043081E08093740080E80E94930010E00AC079
S1130440E1E0F0E0EC0FFD1FE10FF11D80810E945F
S1130450CD001F5F1530A0F3C3C080916000909160
S11304606100A0916200B09163008C199D09AE09EE
S1130470BF090597A105B10508F4B2C020E030E03A
S113048044E352E46C897D898E899F890E94180611
S113049088237CF420E030E040EA50E46C897D89D4
S11304A08E899F890E94AC056C8B7D8B8E8B9F8B74
S11304B008C080E090E0A8E4B2E48C8B9D8BAE8B06
S11304C0BF8B8091600090916100A0916200B09117
S11304D063009C01AD012C193D094E095F096901B6
S11304E07A018091770090917800A0917900B09181
S11304F07A00BC01CD0162197309840995090E942F
S1130500C5062B013C01C701B6010E94C5069B012B
S1130510AC01C301B2010E941D0620E030E040EAB4
S113052050E40E947C079B01AC01C0906000D09015
S11305306100E0906200F0906300209077003090BA
S113054078004090790050907A006C897D898E897A
S11305509F890E94AB05688B798B8A8B9B8B9B014F
S1130560AC01688D798D8A8D9B8D0E94AC05688F56
S1130570798F8A8F9B8F28EB3EE145E85EE368899B
S113058079898A899B890E947C07688B798B8A8BFD
S11305909B8B22E539E44DE959E3688D798D8A8D89
S11305A09B8D0E947C079B01AC01688979898A89AB
S11305B09B890E94AC050E948F06A60EB71E3FEFD2
S11305C0A316B1041CF4BB204CF406C00F2EFEEF9E
S11305D0AF2EB12CF02D02C0A12CB12CB9BCA8BCFB
S11305E02091750030917600C401069728173907C9
S11305F00CF433CFC3C08091600090916100A0914E
S11306006200B09163008C199D09AE09BF0905977A
S1130610A105B10508F4B2C020E030E040E251E4A5
S11306206C897D898E899F890E94770718167CF4CE
S113063020E030E040E850E46C897D898E899F8910
S11306400E94AB056C8B7D8B8E8B9F8B08C080E0EA
S113065090E0A0E2B1E48C8B9D8BAE8BBF8B80913C
S1130660600090916100A0916200B09163009C01D0
S1130670AD012C193D094E095F0969017A01809188
S1130680770090917800A0917900B0917A00BC0134
S1130690CD0162197309840995090E94C5062B01CD
S11306A03C01C701B6010E94C5069B01AC01C30110
S11306B0B2010E941D0620E030E040E251E40E94B5
S11306C07C079B01AC01C0906000D0906100E09079
S11306D06200F090630020907700309078004090A2
S11306E0790050907A006C897D898E899F890E9457
S11306F0AB05688B798B8A8B9B8B9B01AC01688DD6
S1130700798D8A8D9B8D0E94AC05688F798F8A8F35
S11307109B8F28EB3EE145E85EE3688979898A8905
S11307209B890E947C07688B798B8A8B9B8B22E543
S113073039E44DE959E3688D798D8A8D9B8D0E944A
S11307407C079B01AC01688979898A899B890E940D
S1130750AC050E948F06A60EB71E3FEFA316B10488
S11307601CF4BB204CF406C00F2EFEEFAF2EB12CB0
S1130770F02D02C0A12CB12CB9BCA8BC809175008D
S113078090917600881599050CF435CF19BC18BCE6
S1130790B3C199230CF0B0C182E08093740080E867
S11307A00E94930010E00AC0E6E0F0E0EC0FFD1FA9
S11307B0E10FF11D80810E94CD001F5F1530A0F371
S11307C0C3C08091600090916100A0916200B091DB
S11307D063008C199D09AE09BF090597A105B105F0
S11307E008F4B2C020E030E044E352E46C897D892F
S11307F08E899F890E94180688237CF420E030E0CB
S113080040EA50E46C897D898E899F890E94AC05F9
S11308106C8B7D8B8E8B9F8B08C080E090E0A8E46E
S1130820B2E48C8B9D8BAE8BBF8B809160009091DA
S11308306100A0916200B09163009C01AD012C198C
S11308403D094E095F0969017A0180917700909111
S11308507800A0917900B0917A00BC01CD016219B1
S11308607309840995090E94C5062B013C01C7013F
S1130870B6010E94C5069B01AC01C301B2010E94EE
S11308801D0620E030E040E251E40E947C079B0119
S1130890AC01C0906000D0906100E0906200F090E4
S11308A06300209077003090780040907900509059
S11308B07A006C897D898E899F890E94AB05688B3B
S11308C0798B8A8B9B8B9B01AC01688D798D8A8D8A
S11308D09B8D0E94AC05688F798F8A8F9B8F28EB44
S11308E03EE145E85EE3688979898A899B890E94AB
S11308F07C07688B798B8A8B9B8B22E539E44DE9E5
S113090059E3688D798D8A8D9B8D0E947C079B01AC
S1130910AC01688979898A899B890E94AC050E9407
S11309208F06A60EB71E3FEFA316B1041CF4BB201E
S11309304CF406C00F2EFEEFAF2EB12CF02D02C0EA
S1130940A12CB12CBBBCAABC2091750030917600BF
S1130950C4010696821793070CF433CFC3C0809169
S1130960600090916100A0916200B09163008C19C5
S11309709D09AE09BF090597A105B10508F4B2C0E8
S113098020E030E040E251E46C897D898E899F89C2
S11309900E94770718167CF420E030E040E850E429
S11309A06C897D898E899F890E94AB056C8B7D8BB8
S11309B08E8B9F8B08C080E090E0A0E2B1E48C8B2A
S11309C09D8BAE8BBF8B8091600090916100A09154
S11309D06200B09163009C01AD012C193D094E09E0
S11309E05F0969017A018091770090917800A09164
S11309F07900B0917A00BC01CD01621973098409B0
S1130A0095090E94C5062B013C01C701B6010E944D
S1130A10C5069B01AC01C301B2010E941D0620E082
S1130A2030E040E251E40E947C079B01AC01C0909D
S1130A306000D0906100E0906200F090630020902C
S1130A407700309078004090790050907A006C895B
S1130A507D898E899F890E94AB05688B798B8A8BEF
S1130A609B8B9B01AC01688D798D8A8D9B8D0E9437
S1130A70AC05688F798F8A8F9B8F28EB3EE145E820
S1130A805EE3688979898A899B890E947C07688BDF
S1130A90798B8A8B9B8B22E539E44DE959E3688D88
S1130AA0798D8A8D9B8D0E947C079B01AC0168899E
S1130AB079898A899B890E94AC050E948F06A60EBB
S1130AC0B71E3FEFA316B1041CF4BB204CF406C0C0
S1130AD00F2EFEEFAF2EB12CF02D02C0A12CB12CA5
S1130AE0BBBCAABC809175009091760088169906CB
S1130AF00CF435CF1BBC1ABC109274004FE35DE0BC
S1130B0083E0415050408040E1F700C0000081E0A4
S1130B100E94930080E80E94930010E00AC0EBE07A
S1130B20F0E0EC0FFD1FE10FF11D80810E94CD006C
S1130B301F5F1530A0F39FE3ADE0B3E09150A040F8
S1130B40B040E1F700C000008091750090917600FC
S1130B500E9403013ACC5058BB27AA270E94C30520
S1130B600C943D070E942F0738F00E94360720F0AE
S1130B7039F49F3F19F426F40C942C070EF4E095F5
S1130B80E7FB0C942607E92F0E944E0758F3BA1787
S1130B90620773078407950720F079F4A6F50C948F
S1130BA070070EF4E0950B2EBA2FA02D0B01B9019E
S1130BB090010C01CA01A0011124FF27591B99F0CF
S1130BC0593F50F4503E68F11A16F040A22F232FDB
S1130BD0342F4427585FF3CF469537952795A7952B
S1130BE0F0405395C9F77EF41F16BA0B620B730BD2
S1130BF0840BBAF09150A1F0FF0FBB1F661F771F43
S1130C00881FC2F70EC0BA0F621F731F841F48F4F7
S1130C10879577956795B795F7959E3F08F0B0CF80
S1130C209395880F08F09927EE0F97958795089567
S1130C300E94020708F481E008950E9431060C9492
S1130C403D070E94360758F00E942F0740F029F410
S1130C505F3F29F00C94260751110C9471070C94F2
S1130C602C070E944E0768F39923B1F3552391F39F
S1130C70951B550BBB27AA2762177307840738F007
S1130C809F5F5F4F220F331F441FAA1FA9F335D064
S1130C900E2E3AF0E0E832D091505040E695001C18
S1130CA0CAF72BD0FE2F29D0660F771F881FBB1FD2
S1130CB0261737074807AB07B0E809F0BB0B802DB0
S1130CC0BF01FF2793585F4F3AF09E3F510578F0DC
S1130CD00C9426070C9471075F3FE4F3983ED4F319
S1130CE0869577956795B795F7959F5FC9F7880FB0
S1130CF0911D9695879597F90895E1E0660F771F02
S1130D00881FBB1F621773078407BA0720F0621B92
S1130D10730B840BBA0BEE1F88F7E09508950E94BD
S1130D2096066894B1110C94710708950E945607B1
S1130D3088F09F5798F0B92F9927B751B0F0E1F098
S1130D40660F771F881F991F1AF0BA95C9F714C048
S1130D50B13091F00E947007B1E008950C947007CF
S1130D60672F782F8827B85F39F0B93FCCF3869581
S1130D7077956795B395D9F73EF4909580957095DE
S1130D8061957F4F8F4F9F4F0895E89409C097FB5B
S1130D903EF490958095709561957F4F8F4F9F4F4E
S1130DA09923A9F0F92F96E9BB279395F695879592
S1130DB077956795B795F111F8CFFAF4BB0F11F455
S1130DC060FF1BC06F5F7F4F8F4F9F4F16C08823FC
S1130DD011F096E911C0772321F09EE8872F762F32
S1130DE005C0662371F096E8862F70E060E02AF073
S1130DF09A95660F771F881FDAF7880F969587955F
S1130E0097F90895990F0008550FAA0BE0E8FEEF33
S1130E1016161706E807F907C0F012161306E407BA
S1130E20F50798F0621B730B840B950B39F40A26B3
S1130E3061F0232B242B252B21F408950A2609F491
S1130E40A140A6958FEF811D811D089597F99F6795
S1130E5080E870E060E008959FEF80EC089500243E
S1130E600A941616170618060906089500240A940B
S1130E7012161306140605060895092E0394000C91
S1130E8011F4882352F0BB0F40F4BF2B11F460FF20
S1130E9004C06F5F7F4F8F4F9F4F089557FD905849
S1130EA0440F551F59F05F3F71F04795880F97FB2A
S1130EB0991F61F09F3F79F08795089512161306E4
S1130EC01406551FF2CF4695F1DF08C01616170613
S1130ED01806991FF1CF8695710561050894089548
S1130EE0E894BB2766277727CB0197F908950E94DA
S1130EF0020708F48FEF08950E948F070C943D07B2
S1130F000E942F0738F00E94360720F0952311F035
S1130F100C9426070C942C0711240C9471070E943E
S1130F204E0770F3959FC1F3950F50E0551F629FD4
S1130F30F001729FBB27F00DB11D639FAA27F00D2E
S1130F40B11DAA1F649F6627B00DA11D661F829F55
S1130F502227B00DA11D621F739FB00DA11D621F3A
S1130F60839FA00D611D221F749F3327A00D611D57
S1130F70231F849F600D211D822F762F6A2F112439
S1130F809F5750409AF0F1F088234AF0EE0FFF1F6C
S1130F90BB1F661F771F881F91505040A9F79E3FC3
S1130FA0510580F00C9426070C9471075F3FE4F31D
S1130FB0983ED4F3869577956795B795F795E79519
S1130FC09F5FC1F7FE2B880F911D9695879597F922
S1130FD0089597FB072E16F4009407D077FD09D0E7
S1130FE00E94FD0707FC05D03EF4909581959F4F24
S1130FF00895709561957F4F0895AA1BBB1B51E11D
S113100007C0AA1FBB1FA617B70710F0A61BB70B74
S1131010881F991F5A95A9F780959095BC01CD0119
S11310200895BB274A3031F4992322F4BDE2909508
S113103081959F4F0C941D08BB27FB015527AA27B8
S1131040880F991FAA1FA41710F0A41B8395505151
S1131050B9F7A05DAA3308F0A95DA193009779F7C9
S1131060B111B1931192CB010C943608DC01FC014F
S1131070672F71917723E1F7329704C07C916D93C8
S113108070836291AE17BF07C8F30895F894FFCF39
S1131090640000005570202000446F776E00537484
S10710A06F70000069
S9030000FC
